{
  "contractName": "Drone",
  "abi": [
    {
      "constant": false,
      "inputs": [
        {
          "name": "_name",
          "type": "string"
        },
        {
          "name": "_minAltitude",
          "type": "uint256"
        },
        {
          "name": "_maxAltitude",
          "type": "uint256"
        },
        {
          "name": "_pesticideList",
          "type": "uint256[]"
        },
        {
          "name": "_cost",
          "type": "uint256"
        }
      ],
      "name": "addDrone",
      "outputs": [],
      "payable": true,
      "stateMutability": "payable",
      "type": "function"
    },
    {
      "constant": true,
      "inputs": [
        {
          "name": "_droneId",
          "type": "uint256"
        }
      ],
      "name": "ownerOf",
      "outputs": [
        {
          "name": "",
          "type": "address"
        }
      ],
      "payable": false,
      "stateMutability": "view",
      "type": "function"
    },
    {
      "constant": true,
      "inputs": [
        {
          "name": "_droneId",
          "type": "uint256"
        }
      ],
      "name": "getDrone",
      "outputs": [
        {
          "name": "name",
          "type": "string"
        },
        {
          "name": "minAltitude",
          "type": "uint256"
        },
        {
          "name": "maxAltitude",
          "type": "uint256"
        },
        {
          "name": "pesticideList",
          "type": "uint256[]"
        },
        {
          "name": "cost",
          "type": "uint256"
        }
      ],
      "payable": false,
      "stateMutability": "view",
      "type": "function"
    },
    {
      "constant": true,
      "inputs": [
        {
          "name": "_address",
          "type": "address"
        }
      ],
      "name": "getDronesByCompany",
      "outputs": [
        {
          "name": "",
          "type": "uint256[]"
        }
      ],
      "payable": false,
      "stateMutability": "view",
      "type": "function"
    },
    {
      "constant": true,
      "inputs": [
        {
          "name": "_address",
          "type": "address"
        },
        {
          "name": "_minAltitude",
          "type": "uint256"
        },
        {
          "name": "_maxAltitude",
          "type": "uint256"
        },
        {
          "name": "_pesticide",
          "type": "uint256"
        }
      ],
      "name": "searchDroneBy",
      "outputs": [
        {
          "name": "_droneId",
          "type": "uint256"
        },
        {
          "name": "_cost",
          "type": "uint256"
        }
      ],
      "payable": false,
      "stateMutability": "view",
      "type": "function"
    }
  ],
  "bytecode": "0x608060405260016000806101000a81548160ff021916908360ff16021790555034801561002b57600080fd5b50610ae28061003b6000396000f30060806040526004361061006d576000357c0100000000000000000000000000000000000000000000000000000000900463ffffffff1680636352211e14610072578063ac29dff3146100df578063ba85f8871461015b578063dbd1be77146101bf578063ec1d3b7e146102c2575b600080fd5b34801561007e57600080fd5b5061009d6004803603810190808035906020019092919050505061035a565b604051808273ffffffffffffffffffffffffffffffffffffffff1673ffffffffffffffffffffffffffffffffffffffff16815260200191505060405180910390f35b3480156100eb57600080fd5b5061013e600480360381019080803573ffffffffffffffffffffffffffffffffffffffff169060200190929190803590602001909291908035906020019092919080359060200190929190505050610397565b604051808381526020018281526020019250505060405180910390f35b6101bd6004803603810190808035906020019082018035906020019190919293919293908035906020019092919080359060200190929190803590602001908201803590602001919091929391929390803590602001909291905050506104d1565b005b3480156101cb57600080fd5b506101ea600480360381019080803590602001909291905050506106d6565b604051808060200186815260200185815260200180602001848152602001838103835288818151815260200191508051906020019080838360005b83811015610240578082015181840152602081019050610225565b50505050905090810190601f16801561026d5780820380516001836020036101000a031916815260200191505b50838103825285818151815260200191508051906020019060200280838360005b838110156102a957808201518184015260208101905061028e565b5050505090500197505050505050505060405180910390f35b3480156102ce57600080fd5b50610303600480360381019080803573ffffffffffffffffffffffffffffffffffffffff169060200190929190505050610851565b6040518080602001828103825283818151815260200191508051906020019060200280838360005b8381101561034657808201518184015260208101905061032b565b505050509050019250505060405180910390f35b60006002600083815260200190815260200160002060009054906101000a900473ffffffffffffffffffffffffffffffffffffffff169050919050565b6000806000806000809250600360008a73ffffffffffffffffffffffffffffffffffffffff1673ffffffffffffffffffffffffffffffffffffffff1681526020019081526020016000208054905091506000821015156104bf57600090505b818160ff1611158015610407575082155b156104be57600360008a73ffffffffffffffffffffffffffffffffffffffff1673ffffffffffffffffffffffffffffffffffffffff1681526020019081526020016000208160ff1681548110151561045b57fe5b906000526020600020015494506104738589896108e8565b801561048557506104848587610932565b5b156104ac5760019250600160008681526020019081526020016000206004015493506104b1565b600094505b80806001019150506103f6565b5b84849450945050505094509492505050565b8686600160008060009054906101000a900460ff1660ff16815260200190815260200160002060000191906105079291906109c4565b5084600160008060009054906101000a900460ff1660ff1681526020019081526020016000206001018190555083600160008060009054906101000a900460ff1660ff168152602001908152602001600020600201819055508282600160008060009054906101000a900460ff1660ff1681526020019081526020016000206003019190610596929190610a44565b5080600160008060009054906101000a900460ff1660ff1681526020019081526020016000206004018190555033600260008060009054906101000a900460ff1660ff16815260200190815260200160002060006101000a81548173ffffffffffffffffffffffffffffffffffffffff021916908373ffffffffffffffffffffffffffffffffffffffff160217905550600360003373ffffffffffffffffffffffffffffffffffffffff1673ffffffffffffffffffffffffffffffffffffffff1681526020019081526020016000206000809054906101000a900460ff169080600181540180825580915050906001820390600052602060002001600090919260ff169091909150555060016000808282829054906101000a900460ff160192506101000a81548160ff021916908360ff16021790555050505050505050565b6060600080606060006001600087815260200190815260200160002060000160016000888152602001908152602001600020600101546001600089815260200190815260200160002060020154600160008a8152602001908152602001600020600301600160008b815260200190815260200160002060040154848054600181600116156101000203166002900480601f0160208091040260200160405190810160405280929190818152602001828054600181600116156101000203166002900480156107e55780601f106107ba576101008083540402835291602001916107e5565b820191906000526020600020905b8154815290600101906020018083116107c857829003601f168201915b505050505094508180548060200260200160405190810160405280929190818152602001828054801561083757602002820191906000526020600020905b815481526020019060010190808311610823575b505050505091509450945094509450945091939590929450565b6060600360008373ffffffffffffffffffffffffffffffffffffffff1673ffffffffffffffffffffffffffffffffffffffff1681526020019081526020016000208054806020026020016040519081016040528092919081815260200182805480156108dc57602002820191906000526020600020905b8154815260200190600101908083116108c8575b50505050509050919050565b600082600160008681526020019081526020016000206001015410158015610926575081600160008681526020019081526020016000206002015411155b90508090509392505050565b60008060009150600090505b60016000858152602001908152602001600020600301805490508160ff16108015610967575081155b156109ba5782600160008681526020019081526020016000206003018260ff1681548110151561099357fe5b906000526020600020015414156109ad57600191506109ba565b808060010191505061093e565b8191505092915050565b828054600181600116156101000203166002900490600052602060002090601f016020900481019282601f10610a0557803560ff1916838001178555610a33565b82800160010185558215610a33579182015b82811115610a32578235825591602001919060010190610a17565b5b509050610a409190610a91565b5090565b828054828255906000526020600020908101928215610a80579160200282015b82811115610a7f578235825591602001919060010190610a64565b5b509050610a8d9190610a91565b5090565b610ab391905b80821115610aaf576000816000905550600101610a97565b5090565b905600a165627a7a72305820358ac1ae9e42006f250b8d2fefa0eec871bd003cf95707ba3fc22a890ffed18c0029",
  "source": "pragma solidity ^0.4.25;\r\n\r\nimport \"./Interfaces/IDrone.sol\";\r\n\r\n/*\r\n * @title Implementation for drones\r\n *\r\n * @author Juan José Alba\r\n */\r\ncontract Drone is IDrone {\r\n        \r\n    // Drone structure\r\n    struct structDrone {\r\n        string name; // drone's name\r\n        uint256 minAltitude; // minimun altitude\r\n        uint256 maxAltitude; // maximun altitude\r\n        uint256[] pesticideList; // Pesticide (from pesticideList)\r\n        uint256 cost;\r\n    }\r\n    \r\n    // Counter for drone Id's\r\n    uint8 internal droneCounter = 1;\r\n    // Mappring for drones, Id to struct\r\n    mapping (uint256 => structDrone) internal droneList;\r\n    // Mapping drone Id to company address\r\n    mapping (uint256 => address) internal droneToCompany;\r\n    // Mapping drones by owner\r\n    mapping (address => uint256[]) internal dronesByCompany;\r\n    \r\n    function addDrone (string _name, uint256 _minAltitude, uint256 _maxAltitude, uint256[] _pesticideList, uint256 _cost) external payable {\r\n        \r\n        // Add drone to owner\r\n        droneList[droneCounter].name = _name;\r\n        droneList[droneCounter].minAltitude = _minAltitude;\r\n        droneList[droneCounter].maxAltitude = _maxAltitude;\r\n        droneList[droneCounter].pesticideList = _pesticideList;\r\n        droneList[droneCounter].cost = _cost;\r\n        \r\n        // Add new drone to owner drone List\r\n        droneToCompany[droneCounter] = msg.sender;\r\n        \r\n        // Add drone's id to company's drone List\r\n        dronesByCompany[msg.sender].push(droneCounter);\r\n        \r\n        // Increment drone´s Id\r\n        droneCounter += 1;\r\n    }\r\n    \r\n    function ownerOf(uint256 _droneId) public view returns (address) {\r\n        \r\n        return droneToCompany[_droneId];\r\n    }\r\n\r\n    function getDrone(uint256 _droneId) public constant returns (\r\n            string name,\r\n            uint256 minAltitude,\r\n            uint256 maxAltitude,\r\n            uint256[] pesticideList,\r\n            uint256 cost)\r\n        {\r\n        \r\n        return (\r\n            droneList[_droneId].name,\r\n            droneList[_droneId].minAltitude,\r\n            droneList[_droneId].maxAltitude,\r\n            droneList[_droneId].pesticideList,\r\n            droneList[_droneId].cost\r\n        );\r\n    }\r\n    \r\n    function getDronesByCompany(address _address) public view returns (uint256[]) {\r\n        \r\n        return dronesByCompany[_address];\r\n    }\r\n    \r\n    function searchDroneBy(address _address, uint256 _minAltitude, uint256 _maxAltitude, uint256 _pesticide) public view returns (\r\n            uint256 _droneId,\r\n            uint256 _cost)\r\n        {\r\n        \r\n        bool _find = false;\r\n        uint256 listLength = dronesByCompany[_address].length;\r\n        if (listLength >= 0 ) {\r\n            \r\n            for(uint8 i=0; i <= listLength && !_find; i++){\r\n            \r\n                _droneId = dronesByCompany[_address][i];\r\n                if (checkHigh(_droneId, _minAltitude, _maxAltitude) && checkPesticide(_droneId, _pesticide)) {\r\n                    _find = true;\r\n                    _cost = droneList[_droneId].cost;\r\n                } else {\r\n                    _droneId = 0;\r\n                }\r\n            }\r\n        }\r\n        \r\n        return (_droneId, _cost);\r\n    }\r\n    \r\n    function checkHigh (uint256 _droneId, uint256 _minAltitude, uint256 _maxAltitude) private view returns (bool droneValid) {\r\n         \r\n        droneValid = droneList[_droneId].minAltitude >= _minAltitude && droneList[_droneId].maxAltitude <= _maxAltitude;\r\n        return droneValid;\r\n    }\r\n    \r\n    function checkPesticide (uint256 _droneId, uint256 _pesticide) private view returns (bool droneValid) {\r\n        \r\n        droneValid = false;\r\n        \r\n        for(uint8 i=0; i < droneList[_droneId].pesticideList.length && !droneValid; i++){\r\n            \r\n            if (droneList[_droneId].pesticideList[i] == _pesticide) {\r\n                droneValid = true;\r\n                break;\r\n            }\r\n        }\r\n        \r\n        return droneValid;\r\n    }\r\n}",
  "sourcePath": "D:/trabajos/projects/drone-spraying/contracts/Drone.sol",
  "compiler": {
    "name": "solc",
    "version": "0.4.25+commit.59dbf8f1.Emscripten.clang"
  },
  "schemaVersion": "3.3.4",
  "updatedAt": "2021-03-21T19:11:31.612Z",
  "networkType": "ethereum",
  "devdoc": {
    "methods": {}
  },
  "userdoc": {
    "methods": {}
  }
}