{
  "contractName": "ERC20Token",
  "abi": [
    {
      "anonymous": false,
      "inputs": [
        {
          "indexed": true,
          "name": "from",
          "type": "address"
        },
        {
          "indexed": true,
          "name": "to",
          "type": "address"
        },
        {
          "indexed": false,
          "name": "value",
          "type": "uint256"
        }
      ],
      "name": "Transfer",
      "type": "event"
    },
    {
      "anonymous": false,
      "inputs": [
        {
          "indexed": true,
          "name": "owner",
          "type": "address"
        },
        {
          "indexed": true,
          "name": "spender",
          "type": "address"
        },
        {
          "indexed": false,
          "name": "value",
          "type": "uint256"
        }
      ],
      "name": "Approval",
      "type": "event"
    },
    {
      "constant": true,
      "inputs": [],
      "name": "totalSupply",
      "outputs": [
        {
          "name": "",
          "type": "uint256"
        }
      ],
      "payable": false,
      "stateMutability": "view",
      "type": "function"
    },
    {
      "constant": true,
      "inputs": [
        {
          "name": "owner",
          "type": "address"
        }
      ],
      "name": "balanceOf",
      "outputs": [
        {
          "name": "",
          "type": "uint256"
        }
      ],
      "payable": false,
      "stateMutability": "view",
      "type": "function"
    },
    {
      "constant": true,
      "inputs": [
        {
          "name": "owner",
          "type": "address"
        },
        {
          "name": "spender",
          "type": "address"
        }
      ],
      "name": "allowance",
      "outputs": [
        {
          "name": "",
          "type": "uint256"
        }
      ],
      "payable": false,
      "stateMutability": "view",
      "type": "function"
    },
    {
      "constant": false,
      "inputs": [
        {
          "name": "to",
          "type": "address"
        },
        {
          "name": "value",
          "type": "uint256"
        }
      ],
      "name": "transfer",
      "outputs": [
        {
          "name": "",
          "type": "bool"
        }
      ],
      "payable": false,
      "stateMutability": "nonpayable",
      "type": "function"
    },
    {
      "constant": false,
      "inputs": [
        {
          "name": "spender",
          "type": "address"
        },
        {
          "name": "value",
          "type": "uint256"
        }
      ],
      "name": "approve",
      "outputs": [
        {
          "name": "",
          "type": "bool"
        }
      ],
      "payable": false,
      "stateMutability": "nonpayable",
      "type": "function"
    },
    {
      "constant": false,
      "inputs": [
        {
          "name": "from",
          "type": "address"
        },
        {
          "name": "to",
          "type": "address"
        },
        {
          "name": "value",
          "type": "uint256"
        }
      ],
      "name": "transferFrom",
      "outputs": [
        {
          "name": "",
          "type": "bool"
        }
      ],
      "payable": false,
      "stateMutability": "nonpayable",
      "type": "function"
    },
    {
      "constant": false,
      "inputs": [
        {
          "name": "account",
          "type": "address"
        },
        {
          "name": "amount",
          "type": "uint256"
        }
      ],
      "name": "_mint",
      "outputs": [],
      "payable": false,
      "stateMutability": "nonpayable",
      "type": "function"
    }
  ],
  "bytecode": "0x60806040526103e860025534801561001657600080fd5b50610a75806100266000396000f300608060405260043610610083576000357c0100000000000000000000000000000000000000000000000000000000900463ffffffff168063095ea7b31461008857806318160ddd146100ed57806323b872dd146101185780634e6ec2471461019d57806370a08231146101ea578063a9059cbb14610241578063dd62ed3e146102a6575b600080fd5b34801561009457600080fd5b506100d3600480360381019080803573ffffffffffffffffffffffffffffffffffffffff1690602001909291908035906020019092919050505061031d565b604051808215151515815260200191505060405180910390f35b3480156100f957600080fd5b5061010261044a565b6040518082815260200191505060405180910390f35b34801561012457600080fd5b50610183600480360381019080803573ffffffffffffffffffffffffffffffffffffffff169060200190929190803573ffffffffffffffffffffffffffffffffffffffff16906020019092919080359060200190929190505050610454565b604051808215151515815260200191505060405180910390f35b3480156101a957600080fd5b506101e8600480360381019080803573ffffffffffffffffffffffffffffffffffffffff169060200190929190803590602001909291905050506106fc565b005b3480156101f657600080fd5b5061022b600480360381019080803573ffffffffffffffffffffffffffffffffffffffff1690602001909291905050506107e8565b6040518082815260200191505060405180910390f35b34801561024d57600080fd5b5061028c600480360381019080803573ffffffffffffffffffffffffffffffffffffffff16906020019092919080359060200190929190505050610830565b604051808215151515815260200191505060405180910390f35b3480156102b257600080fd5b50610307600480360381019080803573ffffffffffffffffffffffffffffffffffffffff169060200190929190803573ffffffffffffffffffffffffffffffffffffffff1690602001909291905050506109c2565b6040518082815260200191505060405180910390f35b60008073ffffffffffffffffffffffffffffffffffffffff168373ffffffffffffffffffffffffffffffffffffffff161415151561035a57600080fd5b81600160003373ffffffffffffffffffffffffffffffffffffffff1673ffffffffffffffffffffffffffffffffffffffff16815260200190815260200160002060008573ffffffffffffffffffffffffffffffffffffffff1673ffffffffffffffffffffffffffffffffffffffff168152602001908152602001600020819055508273ffffffffffffffffffffffffffffffffffffffff163373ffffffffffffffffffffffffffffffffffffffff167f8c5be1e5ebec7d5bd14f71427d1e84f3dd0314c0f7b2291e5b200ac8c7c3b925846040518082815260200191505060405180910390a36001905092915050565b6000600254905090565b60008060008573ffffffffffffffffffffffffffffffffffffffff1673ffffffffffffffffffffffffffffffffffffffff1681526020019081526020016000205482111515156104a357600080fd5b600160008573ffffffffffffffffffffffffffffffffffffffff1673ffffffffffffffffffffffffffffffffffffffff16815260200190815260200160002060003373ffffffffffffffffffffffffffffffffffffffff1673ffffffffffffffffffffffffffffffffffffffff16815260200190815260200160002054821115151561052e57600080fd5b600073ffffffffffffffffffffffffffffffffffffffff168373ffffffffffffffffffffffffffffffffffffffff161415151561056a57600080fd5b816000808673ffffffffffffffffffffffffffffffffffffffff1673ffffffffffffffffffffffffffffffffffffffff16815260200190815260200160002060008282540392505081905550816000808573ffffffffffffffffffffffffffffffffffffffff1673ffffffffffffffffffffffffffffffffffffffff1681526020019081526020016000206000828254019250508190555081600160008673ffffffffffffffffffffffffffffffffffffffff1673ffffffffffffffffffffffffffffffffffffffff16815260200190815260200160002060003373ffffffffffffffffffffffffffffffffffffffff1673ffffffffffffffffffffffffffffffffffffffff168152602001908152602001600020600082825403925050819055508273ffffffffffffffffffffffffffffffffffffffff168473ffffffffffffffffffffffffffffffffffffffff167fddf252ad1be2c89b69c2b068fc378daa952ba7f163c4a11628f55a4df523b3ef846040518082815260200191505060405180910390a3600190509392505050565b60008273ffffffffffffffffffffffffffffffffffffffff161415151561072257600080fd5b80600260008282540192505081905550806000808473ffffffffffffffffffffffffffffffffffffffff1673ffffffffffffffffffffffffffffffffffffffff168152602001908152602001600020600082825401925050819055508173ffffffffffffffffffffffffffffffffffffffff16600073ffffffffffffffffffffffffffffffffffffffff167fddf252ad1be2c89b69c2b068fc378daa952ba7f163c4a11628f55a4df523b3ef836040518082815260200191505060405180910390a35050565b60008060008373ffffffffffffffffffffffffffffffffffffffff1673ffffffffffffffffffffffffffffffffffffffff168152602001908152602001600020549050919050565b60008060003373ffffffffffffffffffffffffffffffffffffffff1673ffffffffffffffffffffffffffffffffffffffff16815260200190815260200160002054821115151561087f57600080fd5b600073ffffffffffffffffffffffffffffffffffffffff168373ffffffffffffffffffffffffffffffffffffffff16141515156108bb57600080fd5b816000803373ffffffffffffffffffffffffffffffffffffffff1673ffffffffffffffffffffffffffffffffffffffff16815260200190815260200160002060008282540392505081905550816000808573ffffffffffffffffffffffffffffffffffffffff1673ffffffffffffffffffffffffffffffffffffffff168152602001908152602001600020600082825401925050819055508273ffffffffffffffffffffffffffffffffffffffff163373ffffffffffffffffffffffffffffffffffffffff167fddf252ad1be2c89b69c2b068fc378daa952ba7f163c4a11628f55a4df523b3ef846040518082815260200191505060405180910390a36001905092915050565b6000600160008473ffffffffffffffffffffffffffffffffffffffff1673ffffffffffffffffffffffffffffffffffffffff16815260200190815260200160002060008373ffffffffffffffffffffffffffffffffffffffff1673ffffffffffffffffffffffffffffffffffffffff168152602001908152602001600020549050929150505600a165627a7a72305820137c6f5d553b8e0879936213b7bdc779ecb3d7f5c244a7cecd7162ee39da695b0029",
  "source": "pragma solidity ^0.4.25;\r\n\r\nimport \"./Interfaces/IERC20.sol\";\r\n\r\n/**\r\n * @title Standard ERC20 token\r\n *\r\n * @dev Implementation of the basic standard token.\r\n * https://github.com/ethereum/EIPs/blob/master/EIPS/eip-20.md\r\n * Originally based on code by FirstBlood: https://github.com/Firstbloodio/token/blob/master/smart_contract/FirstBloodToken.sol\r\n */\r\ncontract ERC20Token is IERC20 {\r\n\r\n    mapping (address => uint256) private _balances;\r\n\r\n    mapping (address => mapping (address => uint256)) private _allowed;\r\n\r\n    uint256 private _totalSupply = 1000;\r\n\r\n    /**\r\n    * @dev Total number of tokens in existence\r\n    */\r\n    function totalSupply() external view returns (uint256) {\r\n        return _totalSupply;\r\n    }\r\n    \r\n      /**\r\n      * @dev Gets the balance of the specified address.\r\n      * @param owner The address to query the balance of.\r\n      * @return An uint256 representing the amount owned by the passed address.\r\n      */\r\n      function balanceOf(address owner) external view returns (uint256) {\r\n        return _balances[owner];\r\n      }\r\n    \r\n      /**\r\n       * @dev Function to check the amount of tokens that an owner allowed to a spender.\r\n       * @param owner address The address which owns the funds.\r\n       * @param spender address The address which will spend the funds.\r\n       * @return A uint256 specifying the amount of tokens still available for the spender.\r\n       */\r\n      function allowance(\r\n        address owner,\r\n        address spender\r\n       )\r\n        external\r\n        view\r\n        returns (uint256)\r\n      {\r\n        return _allowed[owner][spender];\r\n      }\r\n    \r\n      /**\r\n      * @dev Transfer token for a specified address\r\n      * @param to The address to transfer to.\r\n      * @param value The amount to be transferred.\r\n      */\r\n      function transfer(address to, uint256 value) external returns (bool) {\r\n        require(value <= _balances[msg.sender]);\r\n        require(to != address(0));\r\n    \r\n        _balances[msg.sender] -= value;\r\n        _balances[to] += value;\r\n        emit Transfer(msg.sender, to, value);\r\n        return true;\r\n      }\r\n    \r\n     /**\r\n       * @dev Approve the passed address to spend the specified amount of tokens on behalf of msg.sender.\r\n       * Beware that changing an allowance with this method brings the risk that someone may use both the old\r\n       * and the new allowance by unfortunate transaction ordering. One possible solution to mitigate this\r\n       * race condition is to first reduce the spender's allowance to 0 and set the desired value afterwards:\r\n       * https://github.com/ethereum/EIPs/issues/20#issuecomment-263524729\r\n       * @param spender The address which will spend the funds.\r\n       * @param value The amount of tokens to be spent.\r\n       */\r\n      function approve(address spender, uint256 value) external returns (bool) {\r\n        require(spender != address(0));\r\n    \r\n        _allowed[msg.sender][spender] = value;\r\n        emit Approval(msg.sender, spender, value);\r\n        return true;\r\n      }\r\n    \r\n      /**\r\n       * @dev Transfer tokens from one address to another\r\n       * @param from address The address which you want to send tokens from\r\n       * @param to address The address which you want to transfer to\r\n       * @param value uint256 the amount of tokens to be transferred\r\n       */\r\n      function transferFrom(\r\n        address from,\r\n        address to,\r\n        uint256 value\r\n      )\r\n        external\r\n        returns (bool)\r\n      {\r\n        require(value <= _balances[from]);\r\n        require(value <= _allowed[from][msg.sender]);\r\n        require(to != address(0));\r\n    \r\n        _balances[from] -= value;\r\n        _balances[to] += value;\r\n        _allowed[from][msg.sender] -= value;\r\n        emit Transfer(from, to, value);\r\n        return true;\r\n      }\r\n    \r\n      /**\r\n       * @dev Internal function that mints an amount of the token and assigns it to\r\n       * an account. This encapsulates the modification of balances such that the\r\n       * proper events are emitted.\r\n       * @param account The account that will receive the created tokens.\r\n       * @param amount The amount that will be created.\r\n       */\r\n      function _mint(address account, uint256 amount) external {\r\n        require(account != 0);\r\n        _totalSupply += amount;\r\n        _balances[account] += amount;\r\n        emit Transfer(address(0), account, amount);\r\n      }\r\n    \r\n}",
  "sourcePath": "D:/trabajos/projects/drone-spraying/contracts/ERC20Token.sol",
  "compiler": {
    "name": "solc",
    "version": "0.4.25+commit.59dbf8f1.Emscripten.clang"
  },
  "schemaVersion": "3.3.4",
  "updatedAt": "2021-03-21T16:34:00.196Z",
  "networkType": "ethereum",
  "devdoc": {
    "methods": {
      "_mint(address,uint256)": {
        "details": "Internal function that mints an amount of the token and assigns it to\r an account. This encapsulates the modification of balances such that the\r proper events are emitted.\r",
        "params": {
          "account": "The account that will receive the created tokens.\r",
          "amount": "The amount that will be created.\r"
        }
      },
      "allowance(address,address)": {
        "details": "Function to check the amount of tokens that an owner allowed to a spender.\r",
        "params": {
          "owner": "address The address which owns the funds.\r",
          "spender": "address The address which will spend the funds.\r"
        },
        "return": "A uint256 specifying the amount of tokens still available for the spender.\r"
      },
      "approve(address,uint256)": {
        "details": "Approve the passed address to spend the specified amount of tokens on behalf of msg.sender.\r Beware that changing an allowance with this method brings the risk that someone may use both the old\r and the new allowance by unfortunate transaction ordering. One possible solution to mitigate this\r race condition is to first reduce the spender's allowance to 0 and set the desired value afterwards:\r https://github.com/ethereum/EIPs/issues/20#issuecomment-263524729\r",
        "params": {
          "spender": "The address which will spend the funds.\r",
          "value": "The amount of tokens to be spent.\r"
        }
      },
      "balanceOf(address)": {
        "details": "Gets the balance of the specified address.\r",
        "params": {
          "owner": "The address to query the balance of.\r"
        },
        "return": "An uint256 representing the amount owned by the passed address.\r"
      },
      "totalSupply()": {
        "details": "Total number of tokens in existence\r"
      },
      "transfer(address,uint256)": {
        "details": "Transfer token for a specified address\r",
        "params": {
          "to": "The address to transfer to.\r",
          "value": "The amount to be transferred.\r"
        }
      },
      "transferFrom(address,address,uint256)": {
        "details": "Transfer tokens from one address to another\r",
        "params": {
          "from": "address The address which you want to send tokens from\r",
          "to": "address The address which you want to transfer to\r",
          "value": "uint256 the amount of tokens to be transferred\r"
        }
      }
    },
    "title": "Standard ERC20 token\r "
  },
  "userdoc": {
    "methods": {}
  }
}