{
  "contractName": "SprayingContract",
  "abi": [
    {
      "inputs": [
        {
          "name": "_droneC",
          "type": "address"
        },
        {
          "name": "_plotC",
          "type": "address"
        },
        {
          "name": "_tokenC",
          "type": "address"
        }
      ],
      "payable": false,
      "stateMutability": "nonpayable",
      "type": "constructor"
    },
    {
      "constant": false,
      "inputs": [
        {
          "name": "_amount",
          "type": "uint256"
        }
      ],
      "name": "giveTokens",
      "outputs": [],
      "payable": false,
      "stateMutability": "nonpayable",
      "type": "function"
    },
    {
      "constant": false,
      "inputs": [
        {
          "name": "_plotId",
          "type": "uint256"
        }
      ],
      "name": "registerPlot",
      "outputs": [
        {
          "name": "",
          "type": "bool"
        }
      ],
      "payable": true,
      "stateMutability": "payable",
      "type": "function"
    },
    {
      "constant": false,
      "inputs": [
        {
          "name": "_plotToSpray",
          "type": "uint256"
        }
      ],
      "name": "sprayPlot",
      "outputs": [
        {
          "name": "_droneId",
          "type": "uint256"
        }
      ],
      "payable": true,
      "stateMutability": "payable",
      "type": "function"
    },
    {
      "constant": true,
      "inputs": [],
      "name": "getjobsToDo",
      "outputs": [
        {
          "name": "jobsToDo",
          "type": "uint256[5]"
        }
      ],
      "payable": false,
      "stateMutability": "view",
      "type": "function"
    },
    {
      "constant": true,
      "inputs": [],
      "name": "getjobsDone",
      "outputs": [
        {
          "name": "jobsDone",
          "type": "uint256[]"
        }
      ],
      "payable": false,
      "stateMutability": "view",
      "type": "function"
    }
  ],
  "bytecode": "0x6080604052600160035534801561001557600080fd5b50604051606080610f60833981018060405281019080805190602001909291908051906020019092919080519060200190929190505050826000806101000a81548173ffffffffffffffffffffffffffffffffffffffff021916908373ffffffffffffffffffffffffffffffffffffffff16021790555081600160006101000a81548173ffffffffffffffffffffffffffffffffffffffff021916908373ffffffffffffffffffffffffffffffffffffffff16021790555080600260006101000a81548173ffffffffffffffffffffffffffffffffffffffff021916908373ffffffffffffffffffffffffffffffffffffffff160217905550505050610e40806101206000396000f30060806040526004361061006d576000357c0100000000000000000000000000000000000000000000000000000000900463ffffffff1680634e0602cf1461007257806354311422146100de578063615e32f61461010b578063ad1cc5b91461013f578063dc2e3df414610177575b600080fd5b34801561007e57600080fd5b506100876101ca565b6040518080602001828103825283818151815260200191508051906020019060200280838360005b838110156100ca5780820151818401526020810190506100af565b505050509050019250505060405180910390f35b3480156100ea57600080fd5b506101096004803603810190808035906020019092919050505061025f565b005b6101296004803603810190808035906020019092919050505061033f565b6040518082815260200191505060405180910390f35b61015d60048036038101908080359060200190929190505050610b3d565b604051808215151515815260200191505060405180910390f35b34801561018357600080fd5b5061018c610d55565b6040518082600560200280838360005b838110156101b757808201518184015260208101905061019c565b5050505090500191505060405180910390f35b6060600660003373ffffffffffffffffffffffffffffffffffffffff1673ffffffffffffffffffffffffffffffffffffffff16815260200190815260200160002080548060200260200160405190810160405280929190818152602001828054801561025557602002820191906000526020600020905b815481526020019060010190808311610241575b5050505050905090565b600260009054906101000a900473ffffffffffffffffffffffffffffffffffffffff1673ffffffffffffffffffffffffffffffffffffffff16634e6ec24733836040518363ffffffff167c0100000000000000000000000000000000000000000000000000000000028152600401808373ffffffffffffffffffffffffffffffffffffffff1673ffffffffffffffffffffffffffffffffffffffff16815260200182815260200192505050600060405180830381600087803b15801561032457600080fd5b505af1158015610338573d6000803e3d6000fd5b5050505050565b6000806000806000806000600160009054906101000a900473ffffffffffffffffffffffffffffffffffffffff1673ffffffffffffffffffffffffffffffffffffffff16636352211e896040518263ffffffff167c010000000000000000000000000000000000000000000000000000000002815260040180828152602001915050602060405180830381600087803b1580156103db57600080fd5b505af11580156103ef573d6000803e3d6000fd5b505050506040513d602081101561040557600080fd5b810190808051906020019092919050505095506000600560008a815260200190815260200160002054141515156104ca576040517f08c379a00000000000000000000000000000000000000000000000000000000081526004018080602001828103825260218152602001807f506c6f74206973206e6f742077616974696e6720746f2062652073707261796581526020017f640000000000000000000000000000000000000000000000000000000000000081525060400191505060405180910390fd5b600160009054906101000a900473ffffffffffffffffffffffffffffffffffffffff1673ffffffffffffffffffffffffffffffffffffffff1663cfdd4fbd896040518263ffffffff167c010000000000000000000000000000000000000000000000000000000002815260040180828152602001915050606060405180830381600087803b15801561055b57600080fd5b505af115801561056f573d6000803e3d6000fd5b505050506040513d606081101561058557600080fd5b810190808051906020019092919080519060200190929190805190602001909291905050508095508196508297505050506000809054906101000a900473ffffffffffffffffffffffffffffffffffffffff1673ffffffffffffffffffffffffffffffffffffffff1663ac29dff3338787876040518563ffffffff167c0100000000000000000000000000000000000000000000000000000000028152600401808573ffffffffffffffffffffffffffffffffffffffff1673ffffffffffffffffffffffffffffffffffffffff1681526020018481526020018381526020018281526020019450505050506040805180830381600087803b15801561068957600080fd5b505af115801561069d573d6000803e3d6000fd5b505050506040513d60408110156106b357600080fd5b810190808051906020019092919080519060200190929190505050809350819850505060008714151515610775576040517f08c379a00000000000000000000000000000000000000000000000000000000081526004018080602001828103825260338152602001807f5468657265206973206e6f2064726f6e652074686174206669747320746f207081526020017f6c6f74206368617261637465726973746963730000000000000000000000000081525060400191505060405180910390fd5b81600260009054906101000a900473ffffffffffffffffffffffffffffffffffffffff1673ffffffffffffffffffffffffffffffffffffffff1663dd62ed3e88306040518363ffffffff167c0100000000000000000000000000000000000000000000000000000000028152600401808373ffffffffffffffffffffffffffffffffffffffff1673ffffffffffffffffffffffffffffffffffffffff1681526020018273ffffffffffffffffffffffffffffffffffffffff1673ffffffffffffffffffffffffffffffffffffffff16815260200192505050602060405180830381600087803b15801561086757600080fd5b505af115801561087b573d6000803e3d6000fd5b505050506040513d602081101561089157600080fd5b810190808051906020019092919050505010151515610918576040517f08c379a00000000000000000000000000000000000000000000000000000000081526004018080602001828103825260118152602001807f4e6f7420656e6f75676820746f6b656e7300000000000000000000000000000081525060200191505060405180910390fd5b6005600089815260200190815260200160002054905086600460008381526020019081526020016000206001018190555060016004600083815260200190815260200160002060030160006101000a81548160ff0219169083151502179055506000600560008a815260200190815260200160002081905550600660008773ffffffffffffffffffffffffffffffffffffffff1673ffffffffffffffffffffffffffffffffffffffff168152602001908152602001600020889080600181540180825580915050906001820390600052602060002001600090919290919091505550600260009054906101000a900473ffffffffffffffffffffffffffffffffffffffff1673ffffffffffffffffffffffffffffffffffffffff166323b872dd8733856040518463ffffffff167c0100000000000000000000000000000000000000000000000000000000028152600401808473ffffffffffffffffffffffffffffffffffffffff1673ffffffffffffffffffffffffffffffffffffffff1681526020018373ffffffffffffffffffffffffffffffffffffffff1673ffffffffffffffffffffffffffffffffffffffff1681526020018281526020019350505050602060405180830381600087803b158015610af357600080fd5b505af1158015610b07573d6000803e3d6000fd5b505050506040513d6020811015610b1d57600080fd5b810190808051906020019092919050505050869650505050505050919050565b60003373ffffffffffffffffffffffffffffffffffffffff16600160009054906101000a900473ffffffffffffffffffffffffffffffffffffffff1673ffffffffffffffffffffffffffffffffffffffff16636352211e846040518263ffffffff167c010000000000000000000000000000000000000000000000000000000002815260040180828152602001915050602060405180830381600087803b158015610be757600080fd5b505af1158015610bfb573d6000803e3d6000fd5b505050506040513d6020811015610c1157600080fd5b810190808051906020019092919050505073ffffffffffffffffffffffffffffffffffffffff16141515610cd3576040517f08c379a00000000000000000000000000000000000000000000000000000000081526004018080602001828103825260248152602001807f506c6f7420646f6573206e6f742062656c6f6e6720746f20746861742061646481526020017f726573730000000000000000000000000000000000000000000000000000000081525060400191505060405180910390fd5b8160046000600354815260200190815260200160002060000181905550600060046000600354815260200190815260200160002060030160006101000a81548160ff0219169083151502179055506003546005600084815260200190815260200160002081905550600160036000828254019250508190555060019050919050565b610d5d610df1565b6000600190505b6003548160ff16111515610dea5760001515600460008360ff16815260200190815260200160002060030160009054906101000a900460ff1615151415610ddd57600460008260ff16815260200190815260200160002060000154826001830360ff16600581101515610dd357fe5b6020020181815250505b8080600101915050610d64565b8191505090565b60a0604051908101604052806005906020820280388339808201915050905050905600a165627a7a723058202445d1f3bc2a899d429535d2932b99dc756c60fcdba1781e5cf9cf0227e1cc6f0029",
  "source": "pragma solidity ^0.4.25;\n\nimport \"./Interfaces/IERC20.sol\";\nimport \"./Interfaces/IPlot.sol\";\nimport \"./Interfaces/IDrone.sol\";\nimport \"./Interfaces/ISprayingContract.sol\";\n\n/*\n * @title Implementation for the application contract\n *\n * @dev This contract manages the aplication, adding drones to companies, plots to owners,\n *      managing request for spraying and working as a proxy for payments.\n *\n * @author Juan José Alba\n */\ncontract SprayingContract is ISprayingContract{\n    \n    // Contracts\n    IDrone droneContract;\n    IPlot plotContract;\n    IERC20 tokenContract;\n    \n    struct record {\n        uint256 plotId;\n        uint256 droneId;\n        uint256 cost;\n        bool sprayed;\n    }\n    \n    // Plots to be fumigated\n    uint256 numberOfJobsRequested = 1;\n    mapping (uint256 => record) internal requestList;\n    // plot Id to job requested\n    mapping (uint256 => uint256) internal plotToRequest;\n    // Jobs done (owner => sprayed plots)\n    mapping (address => uint256[]) internal done;\n\n    // Constructor\n    constructor (address _droneC, address _plotC, address _tokenC) public {\n        \n\t\tdroneContract = IDrone(_droneC);\n        plotContract = IPlot(_plotC);\n        tokenContract = IERC20(_tokenC);\n        \n    }\n    \n    function giveTokens (uint256 _amount) external {\n        \n        tokenContract._mint(msg.sender, _amount);\n    }\n    \n    function registerPlot (uint256 _plotId) external payable returns (bool) {\n        \n        // Check that user is the owner of the plot\n        require( plotContract.ownerOf(_plotId) == msg.sender, \"Plot does not belong to that address\");\n        \n        // Register plot to be fumigated\n        requestList[numberOfJobsRequested].plotId = _plotId;\n        requestList[numberOfJobsRequested].sprayed = false;\n        plotToRequest[_plotId] = numberOfJobsRequested;\n        \n        numberOfJobsRequested += 1;\n        \n        return true;\n    }\n\n    /*\n     * Spray plot with drone\n     *\n     * This operation is called by the company\n     */\n    function sprayPlot (uint256 _plotToSpray) external payable returns (uint256 _droneId) {\n        \n        // Plot values\n        address _plotOwner = plotContract.ownerOf(_plotToSpray);\n        uint256 _plotMinAltitude;\n        uint256 _plotMaxAltitude;\n        uint256 _plotPesticide;\n\n        // Drone values\n        uint256 _droneCost;\n        \n        // get plot's characteristics\n        require( plotToRequest[_plotToSpray] != 0, \"Plot is not waiting to be sprayed\");\n        (_plotMinAltitude, _plotMaxAltitude, _plotPesticide) = plotContract.getPlot(_plotToSpray);\n        \n        // get the drone\n        (_droneId, _droneCost) = droneContract.searchDroneBy(msg.sender, _plotMinAltitude, _plotMaxAltitude, _plotPesticide);\n        \n        // spary (Mapping)\n        require ( _droneId != 0, \"There is no drone that fits to plot characteristics\");\n        require ( tokenContract.allowance(_plotOwner, address(this)) >= _droneCost, \"Not enough tokens\");\n        uint256 _requestID = plotToRequest[_plotToSpray];\n        requestList[_requestID].droneId = _droneId;\n        requestList[_requestID].sprayed = true;\n        plotToRequest[_plotToSpray] = 0;\n        done[_plotOwner].push(_plotToSpray);\n        \n        // Pay job done to company\n        tokenContract.transferFrom(_plotOwner, msg.sender, _droneCost);\n        \n        return _droneId;        \n    }\n    \n    function getjobsToDo () external view returns (uint256[5] memory jobsToDo) {\n        \n        for(uint8 i=1; i<= numberOfJobsRequested; i++){\n            \n            if (requestList[i].sprayed == false) jobsToDo[i-1] = requestList[i].plotId;\n        }\n\n        return jobsToDo;        \n    }\n    \n    function getjobsDone () external view returns (uint256[] jobsDone) {\n        \n        return done[msg.sender];        \n    }\n}",
  "sourcePath": "D:/trabajos/projects/drone-spraying/contracts/SprayingContract.sol",
  "compiler": {
    "name": "solc",
    "version": "0.4.25+commit.59dbf8f1.Emscripten.clang"
  },
  "schemaVersion": "3.3.4",
  "updatedAt": "2021-03-21T19:11:31.628Z",
  "networkType": "ethereum",
  "devdoc": {
    "methods": {}
  },
  "userdoc": {
    "methods": {}
  }
}