{
  "contractName": "User",
  "abi": [
    {
      "inputs": [
        {
          "name": "_name",
          "type": "string"
        },
        {
          "name": "_role",
          "type": "uint256"
        },
        {
          "name": "_droneC",
          "type": "address"
        },
        {
          "name": "_plotC",
          "type": "address"
        },
        {
          "name": "_tokenC",
          "type": "address"
        },
        {
          "name": "_sprayingContract",
          "type": "address"
        }
      ],
      "payable": false,
      "stateMutability": "nonpayable",
      "type": "constructor"
    },
    {
      "anonymous": false,
      "inputs": [
        {
          "indexed": false,
          "name": "plotId",
          "type": "uint256"
        }
      ],
      "name": "jobRequested",
      "type": "event"
    },
    {
      "anonymous": false,
      "inputs": [
        {
          "indexed": false,
          "name": "plotId",
          "type": "uint256"
        }
      ],
      "name": "jobDone",
      "type": "event"
    },
    {
      "constant": true,
      "inputs": [],
      "name": "getUserData",
      "outputs": [
        {
          "name": "name",
          "type": "string"
        },
        {
          "name": "role",
          "type": "uint256"
        }
      ],
      "payable": false,
      "stateMutability": "view",
      "type": "function"
    },
    {
      "constant": false,
      "inputs": [
        {
          "name": "_name",
          "type": "string"
        },
        {
          "name": "_minAltitude",
          "type": "uint256"
        },
        {
          "name": "_maxAltitude",
          "type": "uint256"
        },
        {
          "name": "_pesticideList",
          "type": "uint256[]"
        },
        {
          "name": "_cost",
          "type": "uint256"
        }
      ],
      "name": "addDrone",
      "outputs": [],
      "payable": true,
      "stateMutability": "payable",
      "type": "function"
    },
    {
      "constant": false,
      "inputs": [
        {
          "name": "_name",
          "type": "string"
        },
        {
          "name": "_minAltitude",
          "type": "uint256"
        },
        {
          "name": "_maxAltitude",
          "type": "uint256"
        },
        {
          "name": "_pesticide",
          "type": "uint256"
        }
      ],
      "name": "addPlot",
      "outputs": [],
      "payable": true,
      "stateMutability": "payable",
      "type": "function"
    },
    {
      "constant": true,
      "inputs": [],
      "name": "getjobsToDo",
      "outputs": [
        {
          "name": "_jobsToDo",
          "type": "uint256[5]"
        }
      ],
      "payable": false,
      "stateMutability": "view",
      "type": "function"
    },
    {
      "constant": false,
      "inputs": [
        {
          "name": "_plotId",
          "type": "uint256"
        }
      ],
      "name": "toHireDrone",
      "outputs": [],
      "payable": true,
      "stateMutability": "payable",
      "type": "function"
    },
    {
      "constant": false,
      "inputs": [
        {
          "name": "_plotId",
          "type": "uint256"
        }
      ],
      "name": "sprayPlot",
      "outputs": [],
      "payable": true,
      "stateMutability": "payable",
      "type": "function"
    },
    {
      "constant": false,
      "inputs": [
        {
          "name": "_amount",
          "type": "uint256"
        }
      ],
      "name": "getCash",
      "outputs": [],
      "payable": false,
      "stateMutability": "nonpayable",
      "type": "function"
    },
    {
      "constant": true,
      "inputs": [],
      "name": "getTokenBalance",
      "outputs": [
        {
          "name": "_balance",
          "type": "uint256"
        }
      ],
      "payable": false,
      "stateMutability": "view",
      "type": "function"
    },
    {
      "constant": false,
      "inputs": [
        {
          "name": "_amount",
          "type": "uint256"
        }
      ],
      "name": "approveToken",
      "outputs": [],
      "payable": false,
      "stateMutability": "nonpayable",
      "type": "function"
    },
    {
      "constant": true,
      "inputs": [],
      "name": "getjobsDone",
      "outputs": [
        {
          "name": "jobsDone",
          "type": "uint256[]"
        }
      ],
      "payable": false,
      "stateMutability": "view",
      "type": "function"
    }
  ],
  "bytecode": "0x60806040523480156200001157600080fd5b50604051620014843803806200148483398101806040528101908080518201929190602001805190602001909291908051906020019092919080519060200190929190805190602001909291908051906020019092919050505060018514806200007b5750600285145b1515620000f0576040517f08c379a00000000000000000000000000000000000000000000000000000000081526004018080602001828103825260108152602001807f4e6f7420612076616c696420726f6c650000000000000000000000000000000081525060200191505060405180910390fd5b8560049080519060200190620001089291906200021f565b508460058190555083600160006101000a81548173ffffffffffffffffffffffffffffffffffffffff021916908373ffffffffffffffffffffffffffffffffffffffff16021790555082600260006101000a81548173ffffffffffffffffffffffffffffffffffffffff021916908373ffffffffffffffffffffffffffffffffffffffff16021790555081600360006101000a81548173ffffffffffffffffffffffffffffffffffffffff021916908373ffffffffffffffffffffffffffffffffffffffff160217905550806000806101000a81548173ffffffffffffffffffffffffffffffffffffffff021916908373ffffffffffffffffffffffffffffffffffffffff160217905550505050505050620002ce565b828054600181600116156101000203166002900490600052602060002090601f016020900481019282601f106200026257805160ff191683800117855562000293565b8280016001018555821562000293579182015b828111156200029257825182559160200191906001019062000275565b5b509050620002a29190620002a6565b5090565b620002cb91905b80821115620002c7576000816000905550600101620002ad565b5090565b90565b6111a680620002de6000396000f3006080604052600436106100a4576000357c0100000000000000000000000000000000000000000000000000000000900463ffffffff16806322e8c87d146100a95780633ac9fc11146101405780634e0602cf1461016d57806355d5a012146101d9578063615e32f61461020657806376dba35b1461022657806382b2e25714610246578063ba85f88714610271578063c9865753146102d5578063dc2e3df414610321575b600080fd5b3480156100b557600080fd5b506100be610374565b6040518080602001838152602001828103825284818151815260200191508051906020019080838360005b838110156101045780820151818401526020810190506100e9565b50505050905090810190601f1680156101315780820380516001836020036101000a031916815260200191505b50935050505060405180910390f35b34801561014c57600080fd5b5061016b60048036038101908080359060200190929190505050610421565b005b34801561017957600080fd5b50610182610546565b6040518080602001828103825283818151815260200191508051906020019060200280838360005b838110156101c55780820151818401526020810190506101aa565b505050509050019250505060405180910390f35b3480156101e557600080fd5b5061020460048036038101908080359060200190929190505050610703565b005b6102246004803603810190808035906020019092919050505061084e565b005b61024460048036038101908080359060200190929190505050610a03565b005b34801561025257600080fd5b5061025b610bb4565b6040518082815260200191505060405180910390f35b6102d3600480360381019080803590602001908201803590602001919091929391929390803590602001909291908035906020019092919080359060200190820180359060200191909192939192939080359060200190929190505050610cb6565b005b61031f600480360381019080803590602001908201803590602001919091929391929390803590602001909291908035906020019092919080359060200190929190505050610e5f565b005b34801561032d57600080fd5b50610336610fe1565b6040518082600560200280838360005b83811015610361578082015181840152602081019050610346565b5050505090500191505060405180910390f35b606060006004600554818054600181600116156101000203166002900480601f0160208091040260200160405190810160405280929190818152602001828054600181600116156101000203166002900480156104125780601f106103e757610100808354040283529160200191610412565b820191906000526020600020905b8154815290600101906020018083116103f557829003601f168201915b50505050509150915091509091565b600360009054906101000a900473ffffffffffffffffffffffffffffffffffffffff1673ffffffffffffffffffffffffffffffffffffffff1663095ea7b36000809054906101000a900473ffffffffffffffffffffffffffffffffffffffff16836040518363ffffffff167c0100000000000000000000000000000000000000000000000000000000028152600401808373ffffffffffffffffffffffffffffffffffffffff1673ffffffffffffffffffffffffffffffffffffffff16815260200182815260200192505050602060405180830381600087803b15801561050757600080fd5b505af115801561051b573d6000803e3d6000fd5b505050506040513d602081101561053157600080fd5b81019080805190602001909291905050505050565b606060026005541415156105e8576040517f08c379a00000000000000000000000000000000000000000000000000000000081526004018080602001828103825260238152602001807f4164647265737320646f6573206e6f742062656c6f6e6720746f20616e206f7781526020017f6e6572000000000000000000000000000000000000000000000000000000000081525060400191505060405180910390fd5b6000809054906101000a900473ffffffffffffffffffffffffffffffffffffffff1673ffffffffffffffffffffffffffffffffffffffff16634e0602cf6040518163ffffffff167c0100000000000000000000000000000000000000000000000000000000028152600401600060405180830381600087803b15801561066d57600080fd5b505af1158015610681573d6000803e3d6000fd5b505050506040513d6000823e3d601f19601f8201168201806040525060208110156106ab57600080fd5b8101908080516401000000008111156106c357600080fd5b828101905060208101848111156106d957600080fd5b81518560208202830111640100000000821117156106f657600080fd5b5050929190505050905090565b60026005541415156107a3576040517f08c379a00000000000000000000000000000000000000000000000000000000081526004018080602001828103825260248152602001807f4164647265737320646f6573206e6f742062656c6f6e677320746f20616e206f81526020017f776e65720000000000000000000000000000000000000000000000000000000081525060400191505060405180910390fd5b6000809054906101000a900473ffffffffffffffffffffffffffffffffffffffff1673ffffffffffffffffffffffffffffffffffffffff166354311422826040518263ffffffff167c010000000000000000000000000000000000000000000000000000000002815260040180828152602001915050600060405180830381600087803b15801561083357600080fd5b505af1158015610847573d6000803e3d6000fd5b5050505050565b600060016005541415156108f0576040517f08c379a00000000000000000000000000000000000000000000000000000000081526004018080602001828103825260258152602001807f4164647265737320646f6573206e6f742062656c6f6e677320746f206120636f81526020017f6d70616e7900000000000000000000000000000000000000000000000000000081525060400191505060405180910390fd5b6000809054906101000a900473ffffffffffffffffffffffffffffffffffffffff1673ffffffffffffffffffffffffffffffffffffffff1663615e32f6836040518263ffffffff167c010000000000000000000000000000000000000000000000000000000002815260040180828152602001915050602060405180830381600087803b15801561098057600080fd5b505af1158015610994573d6000803e3d6000fd5b505050506040513d60208110156109aa57600080fd5b810190808051906020019092919050505090506000811415156109ff577f81cdcd38a492e522cd9662231bae37fc6f1d54b33311d62a0dc50fc0762c4a3d826040518082815260200191505060405180910390a15b5050565b60006002600554141515610aa5576040517f08c379a00000000000000000000000000000000000000000000000000000000081526004018080602001828103825260238152602001807f4164647265737320646f6573206e6f742062656c6f6e6720746f20616e206f7781526020017f6e6572000000000000000000000000000000000000000000000000000000000081525060400191505060405180910390fd5b6000809054906101000a900473ffffffffffffffffffffffffffffffffffffffff1673ffffffffffffffffffffffffffffffffffffffff1663ad1cc5b9836040518263ffffffff167c010000000000000000000000000000000000000000000000000000000002815260040180828152602001915050602060405180830381600087803b158015610b3557600080fd5b505af1158015610b49573d6000803e3d6000fd5b505050506040513d6020811015610b5f57600080fd5b810190808051906020019092919050505090508015610bb0577f4e6494fc14a4b694ba0e072e0fd4c8a53f070b98776d020e8c03e1390e2604c3826040518082815260200191505060405180910390a15b5050565b6000600360009054906101000a900473ffffffffffffffffffffffffffffffffffffffff1673ffffffffffffffffffffffffffffffffffffffff166370a08231306040518263ffffffff167c0100000000000000000000000000000000000000000000000000000000028152600401808273ffffffffffffffffffffffffffffffffffffffff1673ffffffffffffffffffffffffffffffffffffffff168152602001915050602060405180830381600087803b158015610c7357600080fd5b505af1158015610c87573d6000803e3d6000fd5b505050506040513d6020811015610c9d57600080fd5b8101908080519060200190929190505050905080905090565b6001600554141515610d56576040517f08c379a00000000000000000000000000000000000000000000000000000000081526004018080602001828103825260248152602001807f4164647265737320646f6573206e6f742062656c6f6e6720746f206120636f6d81526020017f70616e790000000000000000000000000000000000000000000000000000000081525060400191505060405180910390fd5b600160009054906101000a900473ffffffffffffffffffffffffffffffffffffffff1673ffffffffffffffffffffffffffffffffffffffff1663ba85f887888888888888886040518863ffffffff167c010000000000000000000000000000000000000000000000000000000002815260040180806020018781526020018681526020018060200184815260200183810383528a8a828181526020019250808284378201915050838103825286868281815260200192506020028082843782019150509950505050505050505050600060405180830381600087803b158015610e3e57600080fd5b505af1158015610e52573d6000803e3d6000fd5b5050505050505050505050565b6002600554141515610eff576040517f08c379a00000000000000000000000000000000000000000000000000000000081526004018080602001828103825260248152602001807f4164647265737320646f6573206e6f742062656c6f6e677320746f20616e206f81526020017f776e65720000000000000000000000000000000000000000000000000000000081525060400191505060405180910390fd5b600260009054906101000a900473ffffffffffffffffffffffffffffffffffffffff1673ffffffffffffffffffffffffffffffffffffffff1663c986575386868686866040518663ffffffff167c01000000000000000000000000000000000000000000000000000000000281526004018080602001858152602001848152602001838152602001828103825287878281815260200192508082843782019150509650505050505050600060405180830381600087803b158015610fc257600080fd5b505af1158015610fd6573d6000803e3d6000fd5b505050505050505050565b610fe9611157565b6001600554141515611089576040517f08c379a00000000000000000000000000000000000000000000000000000000081526004018080602001828103825260248152602001807f4164647265737320646f6573206e6f742062656c6f6e6720746f206120636f6d81526020017f70616e790000000000000000000000000000000000000000000000000000000081525060400191505060405180910390fd5b6000809054906101000a900473ffffffffffffffffffffffffffffffffffffffff1673ffffffffffffffffffffffffffffffffffffffff1663dc2e3df46040518163ffffffff167c010000000000000000000000000000000000000000000000000000000002815260040160a060405180830381600087803b15801561110e57600080fd5b505af1158015611122573d6000803e3d6000fd5b505050506040513d601f19601f8201168201806040525060a081101561114757600080fd5b8101908091905050905080905090565b60a0604051908101604052806005906020820280388339808201915050905050905600a165627a7a723058209415f0d0becb28065136ed5e012c3d3d2e0f14d6a461a00473c02a6bf6d763e00029",
  "source": "pragma solidity ^0.4.25;\r\n\r\n// import \"./Interfaces/IUser.sol\";\r\nimport \"./Interfaces/IPlot.sol\";\r\nimport \"./Interfaces/IDrone.sol\";\r\nimport \"./Interfaces/ISprayingContract.sol\";\r\nimport \"./Interfaces/IERC20.sol\";\r\n\r\n\r\n/*\r\n * @title Implementation for users (Can be companies or owners)\r\n *\r\n * @author Juan José Alba\r\n */\r\ncontract User {\r\n    \r\n    uint constant ROLE_COMPANY = 1;\r\n    uint constant ROLE_OWNER = 2;\r\n    \r\n    // events\r\n    event jobRequested(uint256 plotId);\r\n    event jobDone(uint256 plotId);\r\n    \r\n    // Contracts\r\n    ISprayingContract sprayingContract;\r\n    IDrone droneContract;\r\n    IPlot plotContract;\r\n    IERC20 tokenContract;\r\n    \r\n    // Name\r\n    string userName;\r\n    uint256 userRole;\r\n         \r\n    // Add new User\r\n    constructor (string _name, uint256 _role, address _droneC, address _plotC, address _tokenC, address _sprayingContract) public {\r\n        \r\n        require (_role == ROLE_COMPANY || _role == ROLE_OWNER, \"Not a valid role\");\r\n        \r\n        userName = _name;\r\n        userRole = _role;\r\n        \r\n        droneContract = IDrone(_droneC);\r\n        plotContract = IPlot(_plotC);\r\n        tokenContract = IERC20(_tokenC);\r\n\t\tsprayingContract = ISprayingContract(_sprayingContract);\r\n    }\r\n    \r\n    function getUserData () public view returns (string name, uint256 role) {\r\n        \r\n        return (\r\n            userName,\r\n            userRole\r\n        );\r\n    }\r\n    \r\n    function addDrone (string _name, uint256 _minAltitude, uint256 _maxAltitude, uint256[] _pesticideList, uint256 _cost) external payable {\r\n        \r\n        // Check that address is a company\r\n        require( userRole == 1, \"Address does not belong to a company\");\r\n        \r\n        droneContract.addDrone(_name, _minAltitude, _maxAltitude, _pesticideList, _cost);\r\n    }\r\n    \r\n    function addPlot (string _name, uint256 _minAltitude, uint256 _maxAltitude, uint256 _pesticide) external payable {\r\n        \r\n        require( userRole == 2, \"Address does not belongs to an owner\");\r\n        \r\n        plotContract.addPlot(_name, _minAltitude, _maxAltitude, _pesticide);\r\n    }\r\n    \r\n    function getjobsToDo () external view returns (uint256[5] memory _jobsToDo) {\r\n        \r\n        require( userRole == 1, \"Address does not belong to a company\");\r\n        \r\n        _jobsToDo = sprayingContract.getjobsToDo();\r\n        \r\n        return _jobsToDo;\r\n    }\r\n    \r\n    function toHireDrone (uint256 _plotId) external payable {\r\n        \r\n        require( userRole == 2, \"Address does not belong to an owner\");\r\n        \r\n        bool _plotRegistered = sprayingContract.registerPlot( _plotId);\r\n        \r\n        if (_plotRegistered) emit jobRequested( _plotId);\r\n    }\r\n    \r\n    function sprayPlot (uint256 _plotId) external payable {\r\n        \r\n        require( userRole == 1, \"Address does not belongs to a company\");\r\n        \r\n        uint256 _droneID = sprayingContract.sprayPlot( _plotId);\r\n        \r\n        if (_droneID != 0) emit jobDone( _plotId);\r\n    }\r\n    \r\n    function getCash (uint256 _amount) external {\r\n        \r\n        require( userRole == 2, \"Address does not belongs to an owner\");\r\n        \r\n        sprayingContract.giveTokens(_amount);\r\n    }\r\n    \r\n    function getTokenBalance () external view returns (uint256 _balance) {\r\n        \r\n        _balance = tokenContract.balanceOf(address(this));\r\n     \r\n        return _balance;\r\n    }\r\n    \r\n    function approveToken (uint256 _amount) external {\r\n     \r\n        tokenContract.approve(sprayingContract, _amount);\r\n    }\r\n    \r\n    function getjobsDone () external view returns (uint256[] jobsDone) {\r\n        \r\n        require( userRole == 2, \"Address does not belong to an owner\");\r\n        \r\n        return sprayingContract.getjobsDone();        \r\n    }\r\n    \r\n}",
  "sourcePath": "D:/trabajos/projects/drone-spraying/contracts/User.sol",
  "compiler": {
    "name": "solc",
    "version": "0.4.25+commit.59dbf8f1.Emscripten.clang"
  },
  "schemaVersion": "3.3.4",
  "updatedAt": "2021-03-21T16:34:00.209Z",
  "networkType": "ethereum",
  "devdoc": {
    "methods": {}
  },
  "userdoc": {
    "methods": {}
  }
}